{
  "_format": "hh-sol-artifact-1",
  "contractName": "TokenUpgradeable",
  "sourceName": "contracts/TokenUpgradeable.sol",
  "abi": [
    {
      "anonymous": false,
      "inputs": [
        {
          "indexed": false,
          "internalType": "address",
          "name": "previousAdmin",
          "type": "address"
        },
        {
          "indexed": false,
          "internalType": "address",
          "name": "newAdmin",
          "type": "address"
        }
      ],
      "name": "AdminChanged",
      "type": "event"
    },
    {
      "anonymous": false,
      "inputs": [
        {
          "indexed": true,
          "internalType": "address",
          "name": "owner",
          "type": "address"
        },
        {
          "indexed": true,
          "internalType": "address",
          "name": "spender",
          "type": "address"
        },
        {
          "indexed": false,
          "internalType": "uint256",
          "name": "value",
          "type": "uint256"
        }
      ],
      "name": "Approval",
      "type": "event"
    },
    {
      "anonymous": false,
      "inputs": [
        {
          "indexed": true,
          "internalType": "address",
          "name": "beacon",
          "type": "address"
        }
      ],
      "name": "BeaconUpgraded",
      "type": "event"
    },
    {
      "anonymous": false,
      "inputs": [
        {
          "indexed": true,
          "internalType": "address",
          "name": "previousOwner",
          "type": "address"
        },
        {
          "indexed": true,
          "internalType": "address",
          "name": "newOwner",
          "type": "address"
        }
      ],
      "name": "OwnershipTransferred",
      "type": "event"
    },
    {
      "anonymous": false,
      "inputs": [
        {
          "indexed": true,
          "internalType": "address",
          "name": "from",
          "type": "address"
        },
        {
          "indexed": true,
          "internalType": "address",
          "name": "to",
          "type": "address"
        },
        {
          "indexed": false,
          "internalType": "uint256",
          "name": "value",
          "type": "uint256"
        }
      ],
      "name": "Transfer",
      "type": "event"
    },
    {
      "anonymous": false,
      "inputs": [
        {
          "indexed": true,
          "internalType": "address",
          "name": "implementation",
          "type": "address"
        }
      ],
      "name": "Upgraded",
      "type": "event"
    },
    {
      "inputs": [
        {
          "internalType": "address",
          "name": "owner",
          "type": "address"
        },
        {
          "internalType": "address",
          "name": "spender",
          "type": "address"
        }
      ],
      "name": "allowance",
      "outputs": [
        {
          "internalType": "uint256",
          "name": "",
          "type": "uint256"
        }
      ],
      "stateMutability": "view",
      "type": "function"
    },
    {
      "inputs": [
        {
          "internalType": "address",
          "name": "spender",
          "type": "address"
        },
        {
          "internalType": "uint256",
          "name": "amount",
          "type": "uint256"
        }
      ],
      "name": "approve",
      "outputs": [
        {
          "internalType": "bool",
          "name": "",
          "type": "bool"
        }
      ],
      "stateMutability": "nonpayable",
      "type": "function"
    },
    {
      "inputs": [
        {
          "internalType": "address",
          "name": "account",
          "type": "address"
        }
      ],
      "name": "balanceOf",
      "outputs": [
        {
          "internalType": "uint256",
          "name": "",
          "type": "uint256"
        }
      ],
      "stateMutability": "view",
      "type": "function"
    },
    {
      "inputs": [
        {
          "internalType": "address",
          "name": "account",
          "type": "address"
        },
        {
          "internalType": "uint256",
          "name": "amount",
          "type": "uint256"
        }
      ],
      "name": "burn",
      "outputs": [],
      "stateMutability": "nonpayable",
      "type": "function"
    },
    {
      "inputs": [],
      "name": "decimals",
      "outputs": [
        {
          "internalType": "uint8",
          "name": "",
          "type": "uint8"
        }
      ],
      "stateMutability": "view",
      "type": "function"
    },
    {
      "inputs": [
        {
          "internalType": "address",
          "name": "spender",
          "type": "address"
        },
        {
          "internalType": "uint256",
          "name": "subtractedValue",
          "type": "uint256"
        }
      ],
      "name": "decreaseAllowance",
      "outputs": [
        {
          "internalType": "bool",
          "name": "",
          "type": "bool"
        }
      ],
      "stateMutability": "nonpayable",
      "type": "function"
    },
    {
      "inputs": [
        {
          "internalType": "address",
          "name": "spender",
          "type": "address"
        },
        {
          "internalType": "uint256",
          "name": "addedValue",
          "type": "uint256"
        }
      ],
      "name": "increaseAllowance",
      "outputs": [
        {
          "internalType": "bool",
          "name": "",
          "type": "bool"
        }
      ],
      "stateMutability": "nonpayable",
      "type": "function"
    },
    {
      "inputs": [
        {
          "internalType": "string",
          "name": "name_",
          "type": "string"
        },
        {
          "internalType": "string",
          "name": "symbol_",
          "type": "string"
        },
        {
          "internalType": "uint8",
          "name": "decimals_",
          "type": "uint8"
        }
      ],
      "name": "initialize",
      "outputs": [],
      "stateMutability": "nonpayable",
      "type": "function"
    },
    {
      "inputs": [
        {
          "internalType": "address",
          "name": "account",
          "type": "address"
        },
        {
          "internalType": "uint256",
          "name": "amount",
          "type": "uint256"
        }
      ],
      "name": "mint",
      "outputs": [],
      "stateMutability": "nonpayable",
      "type": "function"
    },
    {
      "inputs": [],
      "name": "name",
      "outputs": [
        {
          "internalType": "string",
          "name": "",
          "type": "string"
        }
      ],
      "stateMutability": "view",
      "type": "function"
    },
    {
      "inputs": [],
      "name": "owner",
      "outputs": [
        {
          "internalType": "address",
          "name": "",
          "type": "address"
        }
      ],
      "stateMutability": "view",
      "type": "function"
    },
    {
      "inputs": [],
      "name": "renounceOwnership",
      "outputs": [],
      "stateMutability": "nonpayable",
      "type": "function"
    },
    {
      "inputs": [],
      "name": "symbol",
      "outputs": [
        {
          "internalType": "string",
          "name": "",
          "type": "string"
        }
      ],
      "stateMutability": "view",
      "type": "function"
    },
    {
      "inputs": [],
      "name": "totalSupply",
      "outputs": [
        {
          "internalType": "uint256",
          "name": "",
          "type": "uint256"
        }
      ],
      "stateMutability": "view",
      "type": "function"
    },
    {
      "inputs": [
        {
          "internalType": "address",
          "name": "recipient",
          "type": "address"
        },
        {
          "internalType": "uint256",
          "name": "amount",
          "type": "uint256"
        }
      ],
      "name": "transfer",
      "outputs": [
        {
          "internalType": "bool",
          "name": "",
          "type": "bool"
        }
      ],
      "stateMutability": "nonpayable",
      "type": "function"
    },
    {
      "inputs": [
        {
          "internalType": "address",
          "name": "sender",
          "type": "address"
        },
        {
          "internalType": "address",
          "name": "recipient",
          "type": "address"
        },
        {
          "internalType": "uint256",
          "name": "amount",
          "type": "uint256"
        }
      ],
      "name": "transferFrom",
      "outputs": [
        {
          "internalType": "bool",
          "name": "",
          "type": "bool"
        }
      ],
      "stateMutability": "nonpayable",
      "type": "function"
    },
    {
      "inputs": [
        {
          "internalType": "address",
          "name": "newOwner",
          "type": "address"
        }
      ],
      "name": "transferOwnership",
      "outputs": [],
      "stateMutability": "nonpayable",
      "type": "function"
    },
    {
      "inputs": [
        {
          "internalType": "address",
          "name": "newImplementation",
          "type": "address"
        }
      ],
      "name": "upgradeTo",
      "outputs": [],
      "stateMutability": "nonpayable",
      "type": "function"
    },
    {
      "inputs": [
        {
          "internalType": "address",
          "name": "newImplementation",
          "type": "address"
        },
        {
          "internalType": "bytes",
          "name": "data",
          "type": "bytes"
        }
      ],
      "name": "upgradeToAndCall",
      "outputs": [],
      "stateMutability": "payable",
      "type": "function"
    }
  ],
  "bytecode": "0x60a06040523073ffffffffffffffffffffffffffffffffffffffff1660809073ffffffffffffffffffffffffffffffffffffffff1660601b81525034801561004657600080fd5b5060805160601c61339761007a600039600081816107820152818161081101528181610a670152610af601526133976000f3fe6080604052600436106101145760003560e01c80634f1ef286116100a05780639dc29fac116100645780639dc29fac14610392578063a457c2d7146103bb578063a9059cbb146103f8578063dd62ed3e14610435578063f2fde38b1461047257610114565b80634f1ef286146102cc57806370a08231146102e8578063715018a6146103255780638da5cb5b1461033c57806395d89b411461036757610114565b806323b872dd116100e757806323b872dd146101d5578063313ce567146102125780633659cfe61461023d578063395093511461026657806340c10f19146102a357610114565b806306fdde0314610119578063095ea7b3146101445780631624f6c61461018157806318160ddd146101aa575b600080fd5b34801561012557600080fd5b5061012e61049b565b60405161013b91906127d1565b60405180910390f35b34801561015057600080fd5b5061016b6004803603810190610166919061238a565b61052d565b60405161017891906127b6565b60405180910390f35b34801561018d57600080fd5b506101a860048036038101906101a391906123c6565b61054b565b005b3480156101b657600080fd5b506101bf610667565b6040516101cc9190612a53565b60405180910390f35b3480156101e157600080fd5b506101fc60048036038101906101f791906122e7565b610671565b60405161020991906127b6565b60405180910390f35b34801561021e57600080fd5b50610227610769565b6040516102349190612a6e565b60405180910390f35b34801561024957600080fd5b50610264600480360381019061025f9190612282565b610780565b005b34801561027257600080fd5b5061028d6004803603810190610288919061238a565b61092f565b60405161029a91906127b6565b60405180910390f35b3480156102af57600080fd5b506102ca60048036038101906102c5919061238a565b6109db565b005b6102e660048036038101906102e19190612336565b610a65565b005b3480156102f457600080fd5b5061030f600480360381019061030a9190612282565b610ba2565b60405161031c9190612a53565b60405180910390f35b34801561033157600080fd5b5061033a610beb565b005b34801561034857600080fd5b50610351610c73565b60405161035e919061279b565b60405180910390f35b34801561037357600080fd5b5061037c610c9d565b60405161038991906127d1565b60405180910390f35b34801561039e57600080fd5b506103b960048036038101906103b4919061238a565b610d2f565b005b3480156103c757600080fd5b506103e260048036038101906103dd919061238a565b610db9565b6040516103ef91906127b6565b60405180910390f35b34801561040457600080fd5b5061041f600480360381019061041a919061238a565b610ea4565b60405161042c91906127b6565b60405180910390f35b34801561044157600080fd5b5061045c600480360381019061045791906122ab565b610ec2565b6040516104699190612a53565b60405180910390f35b34801561047e57600080fd5b5061049960048036038101906104949190612282565b610f49565b005b606060cc80546104aa90612c63565b80601f01602080910402602001604051908101604052809291908181526020018280546104d690612c63565b80156105235780601f106104f857610100808354040283529160200191610523565b820191906000526020600020905b81548152906001019060200180831161050657829003601f168201915b5050505050905090565b600061054161053a611041565b8484611049565b6001905092915050565b600060019054906101000a900460ff166105735760008054906101000a900460ff161561057c565b61057b611214565b5b6105bb576040517f08c379a00000000000000000000000000000000000000000000000000000000081526004016105b2906128f3565b60405180910390fd5b60008060019054906101000a900460ff16159050801561060b576001600060016101000a81548160ff02191690831515021790555060016000806101000a81548160ff0219169083151502179055505b6106158484611225565b61061d61128a565b6106256112eb565b8160fb60006101000a81548160ff021916908360ff16021790555080156106615760008060016101000a81548160ff0219169083151502179055505b50505050565b600060cb54905090565b600061067e84848461134c565b600060ca60008673ffffffffffffffffffffffffffffffffffffffff1673ffffffffffffffffffffffffffffffffffffffff16815260200190815260200160002060006106c9611041565b73ffffffffffffffffffffffffffffffffffffffff1673ffffffffffffffffffffffffffffffffffffffff16815260200190815260200160002054905082811015610749576040517f08c379a000000000000000000000000000000000000000000000000000000000815260040161074090612933565b60405180910390fd5b61075d85610755611041565b858403611049565b60019150509392505050565b600060fb60009054906101000a900460ff16905090565b7f000000000000000000000000000000000000000000000000000000000000000073ffffffffffffffffffffffffffffffffffffffff163073ffffffffffffffffffffffffffffffffffffffff16141561080f576040517f08c379a000000000000000000000000000000000000000000000000000000000815260040161080690612893565b60405180910390fd5b7f000000000000000000000000000000000000000000000000000000000000000073ffffffffffffffffffffffffffffffffffffffff1661084e6115d0565b73ffffffffffffffffffffffffffffffffffffffff16146108a4576040517f08c379a000000000000000000000000000000000000000000000000000000000815260040161089b906128d3565b60405180910390fd5b6108ad81611627565b61092c81600067ffffffffffffffff8111156108f2577f4e487b7100000000000000000000000000000000000000000000000000000000600052604160045260246000fd5b6040519080825280601f01601f1916602001820160405280156109245781602001600182028036833780820191505090505b5060006116a6565b50565b60006109d161093c611041565b848460ca600061094a611041565b73ffffffffffffffffffffffffffffffffffffffff1673ffffffffffffffffffffffffffffffffffffffff16815260200190815260200160002060008873ffffffffffffffffffffffffffffffffffffffff1673ffffffffffffffffffffffffffffffffffffffff168152602001908152602001600020546109cc9190612b42565b611049565b6001905092915050565b6109e3611041565b73ffffffffffffffffffffffffffffffffffffffff16610a01610c73565b73ffffffffffffffffffffffffffffffffffffffff1614610a57576040517f08c379a0000000000000000000000000000000000000000000000000000000008152600401610a4e90612953565b60405180910390fd5b610a618282611877565b5050565b7f000000000000000000000000000000000000000000000000000000000000000073ffffffffffffffffffffffffffffffffffffffff163073ffffffffffffffffffffffffffffffffffffffff161415610af4576040517f08c379a0000000000000000000000000000000000000000000000000000000008152600401610aeb90612893565b60405180910390fd5b7f000000000000000000000000000000000000000000000000000000000000000073ffffffffffffffffffffffffffffffffffffffff16610b336115d0565b73ffffffffffffffffffffffffffffffffffffffff1614610b89576040517f08c379a0000000000000000000000000000000000000000000000000000000008152600401610b80906128d3565b60405180910390fd5b610b9282611627565b610b9e828260016116a6565b5050565b600060c960008373ffffffffffffffffffffffffffffffffffffffff1673ffffffffffffffffffffffffffffffffffffffff168152602001908152602001600020549050919050565b610bf3611041565b73ffffffffffffffffffffffffffffffffffffffff16610c11610c73565b73ffffffffffffffffffffffffffffffffffffffff1614610c67576040517f08c379a0000000000000000000000000000000000000000000000000000000008152600401610c5e90612953565b60405180910390fd5b610c7160006119d8565b565b6000609760009054906101000a900473ffffffffffffffffffffffffffffffffffffffff16905090565b606060cd8054610cac90612c63565b80601f0160208091040260200160405190810160405280929190818152602001828054610cd890612c63565b8015610d255780601f10610cfa57610100808354040283529160200191610d25565b820191906000526020600020905b815481529060010190602001808311610d0857829003601f168201915b5050505050905090565b610d37611041565b73ffffffffffffffffffffffffffffffffffffffff16610d55610c73565b73ffffffffffffffffffffffffffffffffffffffff1614610dab576040517f08c379a0000000000000000000000000000000000000000000000000000000008152600401610da290612953565b60405180910390fd5b610db58282611a9e565b5050565b60008060ca6000610dc8611041565b73ffffffffffffffffffffffffffffffffffffffff1673ffffffffffffffffffffffffffffffffffffffff16815260200190815260200160002060008573ffffffffffffffffffffffffffffffffffffffff1673ffffffffffffffffffffffffffffffffffffffff16815260200190815260200160002054905082811015610e85576040517f08c379a0000000000000000000000000000000000000000000000000000000008152600401610e7c90612a13565b60405180910390fd5b610e99610e90611041565b85858403611049565b600191505092915050565b6000610eb8610eb1611041565b848461134c565b6001905092915050565b600060ca60008473ffffffffffffffffffffffffffffffffffffffff1673ffffffffffffffffffffffffffffffffffffffff16815260200190815260200160002060008373ffffffffffffffffffffffffffffffffffffffff1673ffffffffffffffffffffffffffffffffffffffff16815260200190815260200160002054905092915050565b610f51611041565b73ffffffffffffffffffffffffffffffffffffffff16610f6f610c73565b73ffffffffffffffffffffffffffffffffffffffff1614610fc5576040517f08c379a0000000000000000000000000000000000000000000000000000000008152600401610fbc90612953565b60405180910390fd5b600073ffffffffffffffffffffffffffffffffffffffff168173ffffffffffffffffffffffffffffffffffffffff161415611035576040517f08c379a000000000000000000000000000000000000000000000000000000000815260040161102c90612853565b60405180910390fd5b61103e816119d8565b50565b600033905090565b600073ffffffffffffffffffffffffffffffffffffffff168373ffffffffffffffffffffffffffffffffffffffff1614156110b9576040517f08c379a00000000000000000000000000000000000000000000000000000000081526004016110b0906129d3565b60405180910390fd5b600073ffffffffffffffffffffffffffffffffffffffff168273ffffffffffffffffffffffffffffffffffffffff161415611129576040517f08c379a000000000000000000000000000000000000000000000000000000000815260040161112090612873565b60405180910390fd5b8060ca60008573ffffffffffffffffffffffffffffffffffffffff1673ffffffffffffffffffffffffffffffffffffffff16815260200190815260200160002060008473ffffffffffffffffffffffffffffffffffffffff1673ffffffffffffffffffffffffffffffffffffffff168152602001908152602001600020819055508173ffffffffffffffffffffffffffffffffffffffff168373ffffffffffffffffffffffffffffffffffffffff167f8c5be1e5ebec7d5bd14f71427d1e84f3dd0314c0f7b2291e5b200ac8c7c3b925836040516112079190612a53565b60405180910390a3505050565b600061121f30611c77565b15905090565b600060019054906101000a900460ff16611274576040517f08c379a000000000000000000000000000000000000000000000000000000000815260040161126b906129f3565b60405180910390fd5b61127c611c8a565b6112868282611cdb565b5050565b600060019054906101000a900460ff166112d9576040517f08c379a00000000000000000000000000000000000000000000000000000000081526004016112d0906129f3565b60405180910390fd5b6112e1611c8a565b6112e9611d5c565b565b600060019054906101000a900460ff1661133a576040517f08c379a0000000000000000000000000000000000000000000000000000000008152600401611331906129f3565b60405180910390fd5b611342611dbd565b61134a611e0e565b565b600073ffffffffffffffffffffffffffffffffffffffff168373ffffffffffffffffffffffffffffffffffffffff1614156113bc576040517f08c379a00000000000000000000000000000000000000000000000000000000081526004016113b3906129b3565b60405180910390fd5b600073ffffffffffffffffffffffffffffffffffffffff168273ffffffffffffffffffffffffffffffffffffffff16141561142c576040517f08c379a0000000000000000000000000000000000000000000000000000000008152600401611423906127f3565b60405180910390fd5b611437838383611e5f565b600060c960008573ffffffffffffffffffffffffffffffffffffffff1673ffffffffffffffffffffffffffffffffffffffff168152602001908152602001600020549050818110156114be576040517f08c379a00000000000000000000000000000000000000000000000000000000081526004016114b5906128b3565b60405180910390fd5b81810360c960008673ffffffffffffffffffffffffffffffffffffffff1673ffffffffffffffffffffffffffffffffffffffff168152602001908152602001600020819055508160c960008573ffffffffffffffffffffffffffffffffffffffff1673ffffffffffffffffffffffffffffffffffffffff16815260200190815260200160002060008282546115539190612b42565b925050819055508273ffffffffffffffffffffffffffffffffffffffff168473ffffffffffffffffffffffffffffffffffffffff167fddf252ad1be2c89b69c2b068fc378daa952ba7f163c4a11628f55a4df523b3ef846040516115b79190612a53565b60405180910390a36115ca848484611e64565b50505050565b60006115fe7f360894a13ba1a3210667c828492db98dca3e2076cc3735a920a3ca505d382bbc60001b611e69565b60000160009054906101000a900473ffffffffffffffffffffffffffffffffffffffff16905090565b61162f611041565b73ffffffffffffffffffffffffffffffffffffffff1661164d610c73565b73ffffffffffffffffffffffffffffffffffffffff16146116a3576040517f08c379a000000000000000000000000000000000000000000000000000000000815260040161169a90612953565b60405180910390fd5b50565b60006116b06115d0565b90506116bb84611e73565b6000835111806116c85750815b156116d9576116d78484611f2c565b505b60006117077f4910fdfa16fed3260ed0e7147f7cc6da11a60208b5b9406d12a635614ffd914360001b612010565b90508060000160009054906101000a900460ff166118705760018160000160006101000a81548160ff0219169083151502179055506117d38583604051602401611751919061279b565b6040516020818303038152906040527f3659cfe6000000000000000000000000000000000000000000000000000000007bffffffffffffffffffffffffffffffffffffffffffffffffffffffff19166020820180517bffffffffffffffffffffffffffffffffffffffffffffffffffffffff8381831617835250505050611f2c565b5060008160000160006101000a81548160ff0219169083151502179055506117f96115d0565b73ffffffffffffffffffffffffffffffffffffffff168273ffffffffffffffffffffffffffffffffffffffff1614611866576040517f08c379a000000000000000000000000000000000000000000000000000000000815260040161185d90612833565b60405180910390fd5b61186f8561201a565b5b5050505050565b600073ffffffffffffffffffffffffffffffffffffffff168273ffffffffffffffffffffffffffffffffffffffff1614156118e7576040517f08c379a00000000000000000000000000000000000000000000000000000000081526004016118de90612a33565b60405180910390fd5b6118f360008383611e5f565b8060cb60008282546119059190612b42565b925050819055508060c960008473ffffffffffffffffffffffffffffffffffffffff1673ffffffffffffffffffffffffffffffffffffffff168152602001908152602001600020600082825461195b9190612b42565b925050819055508173ffffffffffffffffffffffffffffffffffffffff16600073ffffffffffffffffffffffffffffffffffffffff167fddf252ad1be2c89b69c2b068fc378daa952ba7f163c4a11628f55a4df523b3ef836040516119c09190612a53565b60405180910390a36119d460008383611e64565b5050565b6000609760009054906101000a900473ffffffffffffffffffffffffffffffffffffffff16905081609760006101000a81548173ffffffffffffffffffffffffffffffffffffffff021916908373ffffffffffffffffffffffffffffffffffffffff1602179055508173ffffffffffffffffffffffffffffffffffffffff168173ffffffffffffffffffffffffffffffffffffffff167f8be0079c531659141344cd1fd0a4f28419497f9722a3daafe3b4186f6b6457e060405160405180910390a35050565b600073ffffffffffffffffffffffffffffffffffffffff168273ffffffffffffffffffffffffffffffffffffffff161415611b0e576040517f08c379a0000000000000000000000000000000000000000000000000000000008152600401611b0590612973565b60405180910390fd5b611b1a82600083611e5f565b600060c960008473ffffffffffffffffffffffffffffffffffffffff1673ffffffffffffffffffffffffffffffffffffffff16815260200190815260200160002054905081811015611ba1576040517f08c379a0000000000000000000000000000000000000000000000000000000008152600401611b9890612813565b60405180910390fd5b81810360c960008573ffffffffffffffffffffffffffffffffffffffff1673ffffffffffffffffffffffffffffffffffffffff168152602001908152602001600020819055508160cb6000828254611bf99190612b98565b92505081905550600073ffffffffffffffffffffffffffffffffffffffff168373ffffffffffffffffffffffffffffffffffffffff167fddf252ad1be2c89b69c2b068fc378daa952ba7f163c4a11628f55a4df523b3ef84604051611c5e9190612a53565b60405180910390a3611c7283600084611e64565b505050565b600080823b905060008111915050919050565b600060019054906101000a900460ff16611cd9576040517f08c379a0000000000000000000000000000000000000000000000000000000008152600401611cd0906129f3565b60405180910390fd5b565b600060019054906101000a900460ff16611d2a576040517f08c379a0000000000000000000000000000000000000000000000000000000008152600401611d21906129f3565b60405180910390fd5b8160cc9080519060200190611d409291906120d0565b508060cd9080519060200190611d579291906120d0565b505050565b600060019054906101000a900460ff16611dab576040517f08c379a0000000000000000000000000000000000000000000000000000000008152600401611da2906129f3565b60405180910390fd5b611dbb611db6611041565b6119d8565b565b600060019054906101000a900460ff16611e0c576040517f08c379a0000000000000000000000000000000000000000000000000000000008152600401611e03906129f3565b60405180910390fd5b565b600060019054906101000a900460ff16611e5d576040517f08c379a0000000000000000000000000000000000000000000000000000000008152600401611e54906129f3565b60405180910390fd5b565b505050565b505050565b6000819050919050565b611e7c81611c77565b611ebb576040517f08c379a0000000000000000000000000000000000000000000000000000000008152600401611eb290612913565b60405180910390fd5b80611ee87f360894a13ba1a3210667c828492db98dca3e2076cc3735a920a3ca505d382bbc60001b611e69565b60000160006101000a81548173ffffffffffffffffffffffffffffffffffffffff021916908373ffffffffffffffffffffffffffffffffffffffff16021790555050565b6060611f3783611c77565b611f76576040517f08c379a0000000000000000000000000000000000000000000000000000000008152600401611f6d90612993565b60405180910390fd5b6000808473ffffffffffffffffffffffffffffffffffffffff1684604051611f9e9190612784565b600060405180830381855af49150503d8060008114611fd9576040519150601f19603f3d011682016040523d82523d6000602084013e611fde565b606091505b5091509150612006828260405180606001604052806027815260200161333b60279139612069565b9250505092915050565b6000819050919050565b61202381611e73565b8073ffffffffffffffffffffffffffffffffffffffff167fbc7cd75a20ee27fd9adebab32041f755214dbc6bffa90cc0225b39da2e5c2d3b60405160405180910390a250565b60608315612079578290506120c9565b60008351111561208c5782518084602001fd5b816040517f08c379a00000000000000000000000000000000000000000000000000000000081526004016120c091906127d1565b60405180910390fd5b9392505050565b8280546120dc90612c63565b90600052602060002090601f0160209004810192826120fe5760008555612145565b82601f1061211757805160ff1916838001178555612145565b82800160010185558215612145579182015b82811115612144578251825591602001919060010190612129565b5b5090506121529190612156565b5090565b5b8082111561216f576000816000905550600101612157565b5090565b600061218661218184612aae565b612a89565b90508281526020810184848401111561219e57600080fd5b6121a9848285612c21565b509392505050565b60006121c46121bf84612adf565b612a89565b9050828152602081018484840111156121dc57600080fd5b6121e7848285612c21565b509392505050565b6000813590506121fe816132f5565b92915050565b600082601f83011261221557600080fd5b8135612225848260208601612173565b91505092915050565b600082601f83011261223f57600080fd5b813561224f8482602086016121b1565b91505092915050565b6000813590506122678161330c565b92915050565b60008135905061227c81613323565b92915050565b60006020828403121561229457600080fd5b60006122a2848285016121ef565b91505092915050565b600080604083850312156122be57600080fd5b60006122cc858286016121ef565b92505060206122dd858286016121ef565b9150509250929050565b6000806000606084860312156122fc57600080fd5b600061230a868287016121ef565b935050602061231b868287016121ef565b925050604061232c86828701612258565b9150509250925092565b6000806040838503121561234957600080fd5b6000612357858286016121ef565b925050602083013567ffffffffffffffff81111561237457600080fd5b61238085828601612204565b9150509250929050565b6000806040838503121561239d57600080fd5b60006123ab858286016121ef565b92505060206123bc85828601612258565b9150509250929050565b6000806000606084860312156123db57600080fd5b600084013567ffffffffffffffff8111156123f557600080fd5b6124018682870161222e565b935050602084013567ffffffffffffffff81111561241e57600080fd5b61242a8682870161222e565b925050604061243b8682870161226d565b9150509250925092565b61244e81612bcc565b82525050565b61245d81612bde565b82525050565b600061246e82612b10565b6124788185612b26565b9350612488818560208601612c30565b80840191505092915050565b600061249f82612b1b565b6124a98185612b31565b93506124b9818560208601612c30565b6124c281612d53565b840191505092915050565b60006124da602383612b31565b91506124e582612d64565b604082019050919050565b60006124fd602283612b31565b915061250882612db3565b604082019050919050565b6000612520602f83612b31565b915061252b82612e02565b604082019050919050565b6000612543602683612b31565b915061254e82612e51565b604082019050919050565b6000612566602283612b31565b915061257182612ea0565b604082019050919050565b6000612589602c83612b31565b915061259482612eef565b604082019050919050565b60006125ac602683612b31565b91506125b782612f3e565b604082019050919050565b60006125cf602c83612b31565b91506125da82612f8d565b604082019050919050565b60006125f2602e83612b31565b91506125fd82612fdc565b604082019050919050565b6000612615602d83612b31565b91506126208261302b565b604082019050919050565b6000612638602883612b31565b91506126438261307a565b604082019050919050565b600061265b602083612b31565b9150612666826130c9565b602082019050919050565b600061267e602183612b31565b9150612689826130f2565b604082019050919050565b60006126a1602683612b31565b91506126ac82613141565b604082019050919050565b60006126c4602583612b31565b91506126cf82613190565b604082019050919050565b60006126e7602483612b31565b91506126f2826131df565b604082019050919050565b600061270a602b83612b31565b91506127158261322e565b604082019050919050565b600061272d602583612b31565b91506127388261327d565b604082019050919050565b6000612750601f83612b31565b915061275b826132cc565b602082019050919050565b61276f81612c0a565b82525050565b61277e81612c14565b82525050565b60006127908284612463565b915081905092915050565b60006020820190506127b06000830184612445565b92915050565b60006020820190506127cb6000830184612454565b92915050565b600060208201905081810360008301526127eb8184612494565b905092915050565b6000602082019050818103600083015261280c816124cd565b9050919050565b6000602082019050818103600083015261282c816124f0565b9050919050565b6000602082019050818103600083015261284c81612513565b9050919050565b6000602082019050818103600083015261286c81612536565b9050919050565b6000602082019050818103600083015261288c81612559565b9050919050565b600060208201905081810360008301526128ac8161257c565b9050919050565b600060208201905081810360008301526128cc8161259f565b9050919050565b600060208201905081810360008301526128ec816125c2565b9050919050565b6000602082019050818103600083015261290c816125e5565b9050919050565b6000602082019050818103600083015261292c81612608565b9050919050565b6000602082019050818103600083015261294c8161262b565b9050919050565b6000602082019050818103600083015261296c8161264e565b9050919050565b6000602082019050818103600083015261298c81612671565b9050919050565b600060208201905081810360008301526129ac81612694565b9050919050565b600060208201905081810360008301526129cc816126b7565b9050919050565b600060208201905081810360008301526129ec816126da565b9050919050565b60006020820190508181036000830152612a0c816126fd565b9050919050565b60006020820190508181036000830152612a2c81612720565b9050919050565b60006020820190508181036000830152612a4c81612743565b9050919050565b6000602082019050612a686000830184612766565b92915050565b6000602082019050612a836000830184612775565b92915050565b6000612a93612aa4565b9050612a9f8282612c95565b919050565b6000604051905090565b600067ffffffffffffffff821115612ac957612ac8612d24565b5b612ad282612d53565b9050602081019050919050565b600067ffffffffffffffff821115612afa57612af9612d24565b5b612b0382612d53565b9050602081019050919050565b600081519050919050565b600081519050919050565b600081905092915050565b600082825260208201905092915050565b6000612b4d82612c0a565b9150612b5883612c0a565b9250827fffffffffffffffffffffffffffffffffffffffffffffffffffffffffffffffff03821115612b8d57612b8c612cc6565b5b828201905092915050565b6000612ba382612c0a565b9150612bae83612c0a565b925082821015612bc157612bc0612cc6565b5b828203905092915050565b6000612bd782612bea565b9050919050565b60008115159050919050565b600073ffffffffffffffffffffffffffffffffffffffff82169050919050565b6000819050919050565b600060ff82169050919050565b82818337600083830152505050565b60005b83811015612c4e578082015181840152602081019050612c33565b83811115612c5d576000848401525b50505050565b60006002820490506001821680612c7b57607f821691505b60208210811415612c8f57612c8e612cf5565b5b50919050565b612c9e82612d53565b810181811067ffffffffffffffff82111715612cbd57612cbc612d24565b5b80604052505050565b7f4e487b7100000000000000000000000000000000000000000000000000000000600052601160045260246000fd5b7f4e487b7100000000000000000000000000000000000000000000000000000000600052602260045260246000fd5b7f4e487b7100000000000000000000000000000000000000000000000000000000600052604160045260246000fd5b6000601f19601f8301169050919050565b7f45524332303a207472616e7366657220746f20746865207a65726f206164647260008201527f6573730000000000000000000000000000000000000000000000000000000000602082015250565b7f45524332303a206275726e20616d6f756e7420657863656564732062616c616e60008201527f6365000000000000000000000000000000000000000000000000000000000000602082015250565b7f45524331393637557067726164653a207570677261646520627265616b73206660008201527f7572746865722075706772616465730000000000000000000000000000000000602082015250565b7f4f776e61626c653a206e6577206f776e657220697320746865207a65726f206160008201527f6464726573730000000000000000000000000000000000000000000000000000602082015250565b7f45524332303a20617070726f766520746f20746865207a65726f20616464726560008201527f7373000000000000000000000000000000000000000000000000000000000000602082015250565b7f46756e6374696f6e206d7573742062652063616c6c6564207468726f7567682060008201527f64656c656761746563616c6c0000000000000000000000000000000000000000602082015250565b7f45524332303a207472616e7366657220616d6f756e742065786365656473206260008201527f616c616e63650000000000000000000000000000000000000000000000000000602082015250565b7f46756e6374696f6e206d7573742062652063616c6c6564207468726f7567682060008201527f6163746976652070726f78790000000000000000000000000000000000000000602082015250565b7f496e697469616c697a61626c653a20636f6e747261637420697320616c72656160008201527f647920696e697469616c697a6564000000000000000000000000000000000000602082015250565b7f455243313936373a206e657720696d706c656d656e746174696f6e206973206e60008201527f6f74206120636f6e747261637400000000000000000000000000000000000000602082015250565b7f45524332303a207472616e7366657220616d6f756e742065786365656473206160008201527f6c6c6f77616e6365000000000000000000000000000000000000000000000000602082015250565b7f4f776e61626c653a2063616c6c6572206973206e6f7420746865206f776e6572600082015250565b7f45524332303a206275726e2066726f6d20746865207a65726f2061646472657360008201527f7300000000000000000000000000000000000000000000000000000000000000602082015250565b7f416464726573733a2064656c65676174652063616c6c20746f206e6f6e2d636f60008201527f6e74726163740000000000000000000000000000000000000000000000000000602082015250565b7f45524332303a207472616e736665722066726f6d20746865207a65726f20616460008201527f6472657373000000000000000000000000000000000000000000000000000000602082015250565b7f45524332303a20617070726f76652066726f6d20746865207a65726f2061646460008201527f7265737300000000000000000000000000000000000000000000000000000000602082015250565b7f496e697469616c697a61626c653a20636f6e7472616374206973206e6f74206960008201527f6e697469616c697a696e67000000000000000000000000000000000000000000602082015250565b7f45524332303a2064656372656173656420616c6c6f77616e63652062656c6f7760008201527f207a65726f000000000000000000000000000000000000000000000000000000602082015250565b7f45524332303a206d696e7420746f20746865207a65726f206164647265737300600082015250565b6132fe81612bcc565b811461330957600080fd5b50565b61331581612c0a565b811461332057600080fd5b50565b61332c81612c14565b811461333757600080fd5b5056fe416464726573733a206c6f772d6c6576656c2064656c65676174652063616c6c206661696c6564a264697066735822122057377cc879ac04a692d11c272852e5bd1b5901fa45fc5b4f4d747603e38d7ea664736f6c63430008040033",
  "linkReferences": {},
  "deployedLinkReferences": {}
}